:020000040800F2
:1000000058040020A9010008FD080008F9080008AC
:10001000FB080008B5020008D10900080000000034
:1000200000000000000000000000000001090008BE
:10003000B702000800000000FF08000803090008DC
:10004000C3010008C3010008C3010008C301000880
:10005000C3010008C3010008C3010008C301000870
:10006000C3010008C3010008C3010008C301000860
:10007000C3010008C3010008C3010008C301000850
:10008000C3010008C3010008C3010008000000000C
:10009000000000000000000000000000C301000894
:1000A000C3010008C3010008C3010008C301000820
:1000B000C3010008C3010008C3010008C301000810
:1000C000C3010008C3010008C3010008C301000800
:1000D000C3010008C3010008C301000800000000BC
:1000E000C3010008C3010008C301000800000000AC
:1000F000000000000000000000000000C301000834
:1001000000000000C3010008C3010008C30100088B
:1001100000000000000000000000000000000000DF
:10012000C3010008C3010008C3010008C30100089F
:10013000C3010008000000000000000000000000F3
:10014000000000000000000000000000C3010008E3
:10015000C3010008C3010008C3010008C30100086F
:10016000C3010008C30100080000000000000000F7
:10017000000000000000000000000000000000007F
:1001800000000000C30100080000000000000000A3
:10019000C3010008DFF80CD000F07AF800480047EF
:1001A000110A000858040020064880470648004706
:1001B000FEE7FEE7FEE7FEE7FEE7FEE7FEE7FEE717
:1001C000FEE7FEE789090008950100082DE9F05FC8
:1001D0000546002092469B468846064681464024B6
:1001E0001BE0284641464746224600F041F8534668
:1001F0005A46C01A914110D311461846224600F0C3
:1002000028F82D1A67EB01084F46224601200021ED
:1002100000F01FF817EB00094E41201EA4F1010465
:10022000DFDC484631462A464346BDE8F09FD2B25D
:1002300001E000F8012B491EFBD270470022F6E7CF
:1002400010B513460A4604461946FFF7F0FF20464C
:1002500010BD202A04DB203A00FA02F1002070478A
:100260009140C2F1200320FA03F3194390407047F4
:10027000202A04DB203A21FA02F00021704721FAFB
:1002800002F3D040C2F12002914008431946704762
:10029000064C074D06E0E06840F0010394E80700D3
:1002A00098471034AC42F6D3FFF778FF6C0B000888
:1002B0008C0B0008FEE7704701488068704700001B
:1002C0001000002002488168027811448160704764
:1002D000100000200B4810B5016841F40071016066
:1002E000016841F480610160016841F4807101603E
:1002F000032000F061F8002000F006F800F024F878
:10030000002010BD003C024070B50D4D04464FF476
:100310007A712878B1FBF0F00A490968B1FBF0F076
:1003200000F0D6FA48B9102C07D200222146501E00
:1003300000F022F800206C6070BD012070BD00004C
:10034000100000201C0000200A4808B5016841F494
:1003500080410160006800F4804000900548001F63
:10036000016841F080510160006800F08050009009
:1003700008BD000044380240F0B40E4B1B680C4628
:10038000C3F30223C3F10705042D00D90425191D69
:10039000072901D2002300E0DB1E012606FA05F141
:1003A000491E214099409E40761E16403143F0BCC4
:1003B00000F00FBB0CED00E0064900F007020868F2
:1003C0004FF6FF03184040EA0220034A104308603A
:1003D000704700000CED00E00000FA052DE9F04741
:1003E0000E46050065D0DFF81481D8F80000F7B29A
:1003F00000F00F00B04207D288F80070D8F8000073
:1004000000F00F00B04254D128683D4C810712D54E
:10041000400703D5206840F4E050206028780007AA
:1004200003D5206840F4604020602068A96820F06F
:10043000F000084320602878C0072DD03049686854
:100440000839012812D0022813D0032811D00968D6
:10045000890700292DDA216821F003010143216079
:10046000FFF72AFF814641F2883A0EE009688903C6
:10047000EFE709688901ECE7FFF71EFFA0EB090130
:10048000514502D90320BDE8F0872068696800F073
:100490000C00B0EB810FEFD1D8F80010404601F00E
:1004A0000F01B14207D90770006800F00F00B04299
:1004B00001D00120E7E72878400705D52068E968E2
:1004C00020F4E050084320602878000706D5206813
:1004D000296920F4604040EAC100206000F018F86B
:1004E0002168084AC1F30311515CC84006490860FD
:1004F00006480068FFF708FF0020C4E7003C024000
:10050000083802405C0B00081C000020140000208A
:10051000154810B5006810F00C02144813D01449A7
:10052000042A0FD0082A0ED10F4C241F22682368FA
:1005300002F03F025B0207D52068C0F38810A0FBE1
:10054000010106E0084610BD2168C1F38811A1FB36
:1005500000010023FFF73AFE2168C1F30141491C65
:100560004900B0FBF1F010BD083802400024F4004F
:1005700040787D012DE9F84F04006ED02078DFF837
:100580003C93C007A9F104054AD009F104000168B1
:10059000C1F38101012908D00068C0F3810002285D
:1005A0000AD1D9F80000400206D52868800337D563
:1005B00060680028E1D033E06068B0F5803F10D07B
:1005C000B0F5A02F286810D020F48030286028686B
:1005D00020F4802028606068A8B1FFF76DFE064611
:1005E0000DE0286840F48030F4E740F48020286073
:1005F000F7E700BFFFF760FE801B642873D8286808
:100600008003F7D50CE0FFF757FE064605E000BF74
:10061000FFF752FE801B6428F0D828688003F7D4C7
:100620002078DFF89C8280074FF0000A3ED5A3486F
:10063000001D016811F00C0F08D00068C0F38100A4
:1006400002280BD1D9F80000400207D4286880079F
:1006500016D5E068012800D112E02BE1E068B8B1BE
:100660000120C8F80000FFF727FE064605E000BF9E
:10067000FFF722FE801B0228C0D828688007F7D524
:100680002868216920F0F80040EAC10028600DE0E8
:10069000C8F800A0FFF710FE064604E0FFF70CFEC6
:1006A000801B02281FD828688007F7D4207800070D
:1006B00022D5824E83486169703671B10121016093
:1006C000FFF7FAFD074604E0FFF7F6FDC01B02281E
:1006D00009D830688007F7D50EE0C0F800A0FFF712
:1006E000EBFD074605E082E0FFF7E6FDC01B0228B0
:1006F0007DD830688007F7D42078400768D5DFF8C8
:10070000BCB100270BF13C0BDBF80000C0000BD4A0
:10071000DBF8001041F08051CBF80010DBF800004E
:10072000012700F080500090674E3068C00510D45B
:10073000306840F480703060FFF7BEFD009005E047
:10074000FFF7BAFD0099401A022850D83068C0055A
:10075000F6D55A4EA0686C3601280FD005283068AF
:1007600010D020F001003060306820F004003060CC
:10077000A068B8B1FFF7A0FD00900FE0306840F02E
:100780000100F4E740F004003060F7E7FFF794FD64
:100790000099411A41F28830814266D8306880075A
:1007A000F4D50EE0FFF788FD009007E0FFF784FD29
:1007B0000099411A41F28830814256D8306880074A
:1007C000F4D42FB1DBF8001021F08051CBF80010E9
:1007D000A069C8B33949091D0968C1F3810102291B
:1007E0004AD00228504607D0C8F8600000E03CE03C
:1007F000FFF762FD04463BE04746C8F86000FFF79C
:100800005BFD064605E000BFFFF756FD801B022892
:100810002BD828688001F7D4D4E907010843A16ADE
:100820002A4A490802EB0141626A41EA82110843FF
:1008300094F82C1040EA0161C9F8001001203866D4
:10084000FFF73AFD044606E036E000BFFFF734FD4F
:10085000001B022809D828688001F7D52CE000BFCA
:10086000FFF72AFD001B022802D90320BDE8F88FFC
:1008700028688001F4D41FE00128F7D0D9F80000DF
:10088000E26900F48001914214D1226A00F03F0134
:1008900091420FD147F6C071626A0140914209D17D
:1008A000A26A00F44031914204D1E16A00F0706024
:1008B000884201D00120D9E70020D7E70438024060
:1008C00000004742800E4742007000400000FFFFDA
:1008D00010B5401EB0F1807F01D3012010BD4FF054
:1008E000E02460610F21601700F073F80020A06120
:1008F00007202061002010BDFEE7FEE7FEE77047FD
:100900007047FFF7DFBC000010B592B03021684699
:10091000FFF794FC14210CA8FFF790FC1848002462
:10092000016841F080510160006800F08050119032
:100930001448016821F4404141F40041016000681D
:10094000069400F440401190022000900120039092
:10095000102004906846FFF70DFE08B172B6FEE75E
:100960000F20CDE90C040E940F9400210CA81094D4
:10097000FFF734FD002801D072B6FEE712B010BDBB
:1009800040380240007000400548016841F47001A1
:10099000016003494FF00060803908607047000033
:1009A00088ED00E0044801688906FCD50248001D76
:1009B0000068C0B27047000000440040034908606E
:1009C000081F01684906FCD5704700000444004038
:1009D000FEE70907090E002804DB00F1E02080F89B
:1009E0000014704700F00F0000F1E02080F8141DA3
:1009F000704702E008C8121F08C1002AFAD17047E8
:100A00007047002001E001C1121F002AFBD170478E
:100A1000FFF760FCFFF778FF4748016841F00801E5
:100A20000160464A4FF0553111600025121D1560D6
:100A3000121D1160404910310A6842F400320A6008
:100A4000016841F0010101603D48016841F0200169
:100A50000160016841F080010160816841F0F001AE
:100A60008160016A41F4E0610162016A41F4E041A0
:100A7000016234480560016841F400510160016879
:100A800021F480510160021F40F28361116001680E
:100A900041F004010160016841F008010160274B49
:100AA000294C2A4A183300BFFFF77CFF5070D060F2
:100AB0007E28F9D10AE000BFFFF774FF107051687B
:100AC00044F82100491C5160FFF778FF506808285E
:100AD000F2D10826FFF766FF44F826009168761CDD
:100AE000084490600B2EF5DDA0F580712739DBD12D
:100AF000DFF86080DFF86090154900204FF4E02AAD
:100B00004FEA39474FEA384C54F82060303E012E06
:100B100001D036B10AE01960C3F80080C3F8009034
:100B200004E0C3F800A01F60C3F800C0401C082800
:100B3000EADB55609560B7E730380240000C0240B0
:100B4000000002400C440040200000200000002073
:100B50000200050003000400060001000000000080
:100B60000000000001020304060708098C0B0008BE
:100B70000000002020000000F2090008AC0B000873
:100B80002000002038040000020A000800000000D5
:100B90000000000000000000000000000100000054
:0C0BA00010000000000000000024F40021
:040000050800019559
:00000001FF
