:020000040800F2
:100000002004002099010008750900087109000802
:1000100073090008A5020008550A00080000000046
:100020000000000000000000000000007909000846
:10003000A702000800000000770900087B090008FB
:10004000B3010008B3010008B3010008B3010008C0
:10005000B3010008B3010008B3010008B3010008B0
:10006000B3010008B3010008B3010008B3010008A0
:10007000B3010008B3010008B3010008B301000890
:10008000B3010008B3010008B3010008B301000880
:10009000B3010008B3010008B30100080903000818
:1000A000B3010008B3010008B3010008B301000860
:1000B000D1090008B3010008B3010008B30100082A
:1000C000B3010008B3010008B3010008B301000840
:1000D000B3010008B3010008B3010008B301000830
:1000E000A9020008B3010008B3010008B301000829
:1000F000B3010008B3010008B3010008B301000810
:10010000B3010008B3010008B3010008B3010008FF
:10011000B3010008B3010008B3010008B3010008EF
:10012000B3010008B3010008B3010008B3010008DF
:10013000B30100080000000000000000B301000847
:10014000B3010008B3010008B3010008B3010008BF
:10015000B3010008B3010008B3010008B3010008AF
:10016000B3010008B3010008B3010008B30100089F
:10017000B3010008B3010008000000000000000007
:10018000B3010008DFF80CD000F07AF8004800470F
:10019000950A0008200400200648804706480047CA
:1001A000FEE7FEE7FEE7FEE7FEE7FEE7FEE7FEE727
:1001B000FEE7FEE7CF090008850100082DE9F05FA2
:1001C0000546002092469B468846064681464024C6
:1001D0001BE0284641464746224600F041F8534678
:1001E0005A46C01A914110D311461846224600F0D3
:1001F00028F82D1A67EB01084F46224601200021FE
:1002000000F01FF817EB00094E41201EA4F1010475
:10021000DFDC484631462A464346BDE8F09FD2B26D
:1002200001E000F8012B491EFBD270470022F6E7DF
:1002300010B513460A4604461946FFF7F0FF20465C
:1002400010BD202A04DB203A00FA02F1002070479A
:100250009140C2F1200320FA03F319439040704704
:10026000202A04DB203A21FA02F00021704721FA0B
:1002700002F3D040C2F12002914008431946704772
:10028000064C074D06E0E06840F0010394E80700E3
:1002900098471034AC42F6D3FFF778FF500D0008B2
:1002A000700D0008FEE770471349086802051348FF
:1002B00004D5026842F48032026014E00A685204F5
:1002C00011D5026842F001020260026842F00402A5
:1002D00002600B48826942F080028261094A002074
:1002E000106050609060086840F4804008600868C2
:1002F00040F4006008607047143C0140180402405C
:1003000000000240000000200D4810B501680D4AB1
:100310004B064FF0010106D50B4B1C6844F001045D
:100320001C60116003E003681B0600D55160016882
:1003300041F040010160016841F08001016010BDA1
:10034000143C01400000002018040240014880686D
:10035000704700000C0000200248816802781144B8
:10036000816070470C0000200B4810B5016841F413
:1003700000710160016841F480610160016841F42D
:1003800080710160032000F061F8002000F006F8A1
:1003900000F024F8002010BD003C024070B50D4D67
:1003A00004464FF47A712878B1FBF0F00A490968E5
:1003B000B1FBF0F000F0C8FA48B9102C07D20022C7
:1003C0002146501E00F022F800206C6070BD012014
:1003D00070BD00000C000020180000200A4808B57D
:1003E000016841F480410160006800F480400090A1
:1003F0000548001F016841F080510160006800F06D
:100400008050009008BD000044380240F0B40E4B0C
:100410001B680C46C3F30223C3F10705042D00D962
:100420000425191D072901D2002300E0DB1E012647
:1004300006FA05F1491E214099409E40761E16405D
:100440003143F0BC00F007BB0CED00E0064900F0C2
:10045000070208684FF6FF03184040EA0220034AEB
:1004600010430860704700000CED00E00000FA0542
:100470002DE9F0470E46050063D0DFF81C81D8F85F
:100480000000F7B200F00F00B04207D288F8007009
:10049000D8F8000000F00F00B04252D128683F4C5D
:1004A000810712D5400703D5206840F4E050206052
:1004B0002878000703D5206840F460402060206859
:1004C000A96820F0F000084320602878C0072BD0EE
:1004D000324968680839012810D00968022810D00C
:1004E000890700292DDA216821F0030101432160E9
:1004F000FFF72CFF814641F2883A0EE00968890334
:10050000EFE78901EDE700BFFFF720FFA0EB09014E
:10051000514502D90320BDE8F0872068696800F0E2
:100520000C00B0EB810FEFD1D8F80010404601F07D
:100530000F01B14207D90770006800F00F00B04208
:1005400001D00120E7E72878400705D52068E96851
:1005500020F4E050084320602878000706D5206882
:10056000296920F4604040EAC100206000F01EF8D4
:100570002168F02292FAA2F201F0F001B2FA82F2BE
:10058000D140074A515CC8400649086006480068E7
:10059000FFF704FF0020BEE7003C0240083802409D
:1005A000400D00081800002010000020154810B56C
:1005B000006810F00C02144813D01449042A0FD01C
:1005C000082A0ED10F4C241F2268236802F03F0234
:1005D0005B0207D52068C0F38810A0FB010106E08C
:1005E000084610BD2168C1F38811A1FB000100235A
:1005F000FFF7E4FD2168C1F30141491C4900B0FB4C
:10060000F1F010BD083802400024F40040787D016C
:100610002DE9F84F04007BD0DFF814B32078ABF15C
:100620000406C007A6F1040536D0DBF800105846D2
:10063000C1F38101012907D00068C0F381000228BD
:1006400009D13068400206D52868800324D5606847
:100650000028E0D020E0B6492079891F0870606842
:1006600068B1FFF773FE074605E000BFFFF76EFEB7
:10067000C01B642876D828688003F7D50CE0FFF704
:1006800065FE074605E000BFFFF760FEC01B64285B
:10069000F0D828688003F7D42078DFF898828007A4
:1006A0004FF0000944D5DBF80010584611F00C0F4C
:1006B0004FF0F80A07D00068C0F38100022809D182
:1006C0003068400206D42868800715D5E068012804
:1006D0001ED111E0E068E0B10120C8F80000FFF78A
:1006E00035FE074605E000BFFFF730FEC01B0228BD
:1006F000C0D828688007F7D528689AFAAAF2216935
:10070000B2FA82F220F0F8009140084328600FE02E
:100710000AE1C8F80090FFF719FE074605E000BFA0
:10072000FFF714FEC01B02281CD828688007F7D4E6
:100730002078000727D5DFF8F8A17F4861690AF122
:100740006C0A81B101210160FFF700FE074604E059
:10075000FFF7FCFDC01B022804D8DAF80000800770
:10076000F6D510E082E0C0F80090FFF7EFFD0746F5
:1007700005E000BFFFF7EAFDC01B022876D8DAF8D3
:1007800000008007F6D4207840075FD5DFF8A0A1ED
:1007900000270AF1380ADAF80000C0000BD4DAF8B2
:1007A000001041F08051CAF80010DAF8000001276B
:1007B00000F0805000906148016841F48071016050
:1007C0000168C90512D4016841F480710160FFF726
:1007D000BDFD009006E000BFFFF7B8FD0099401A8C
:1007E00002287ED855480068C005F5D55049207AC2
:1007F00068310870A06888B1FFF7A8FD009007E095
:10080000FFF7A4FD0099411A41F28830814268D86F
:100810004748683000688007F2D510E0FFF796FD82
:10082000009007E0FFF792FD0099411A41F28830ED
:10083000814256D83E48683000688007F2D42FB114
:10084000DAF8001021F08051CAF80010A069B8B39E
:10085000DBF80010C1F38101022949D00228C8F851
:10086000609004D0FFF772FD04463DE039E0FFF7E9
:100870006DFD074605E000BFFFF768FDC01B64285B
:100880002FD828688001F7D4D4E907010843616AAA
:1008900094F82C20890141EA02610843A16A284AA0
:1008A000490802EB014108433168264A11400843D8
:1008B00030600120C8F86000FFF748FD044606E0FC
:1008C00034E000BFFFF742FD001B642809D8286808
:1008D0008001F7D52AE000BFFFF738FD001B642830
:1008E00002D90320BDE8F88F28688001F4D41DE008
:1008F0000128F7D03068E26900F48001914213D1F9
:10090000226A00F03F0191420ED1616AC0F3881261
:10091000914209D1A26A00F44031914204D1E16AC6
:1009200000F07060884201D00120DBE70020D9E7A9
:100930000838024000004742800E474200700040E5
:100940000000FFFF0080BCF010B5401EB0F1807FBA
:1009500001D3012010BD4FF0E02460610F2160172A
:1009600000F079F80020A06107202061002010BD70
:10097000FEE7FEE7FEE770477047FFF7EDBC10B5F6
:1009800092B030216846FFF751FC14210CA8FFF704
:100990004DFC0220009001200390102000240490C0
:1009A00006946846FFF734FE08B172B6FEE70F20E2
:1009B000CDE90C040E940F9400210CA81094FFF7BD
:1009C00057FD002801D072B6FEE712B010BD704787
:1009D00030B51D490868012835D18C681C48641C55
:1009E0008C60E307194A036806D043F004030360F0
:1009F000936943F4000305E043F4802303609369A3
:100A000043F0800393614D680023012D02D0192C1F
:100A100004D012E0046844F0010403E01DB9046846
:100A200044F480340460046844F004040460906971
:100A300040F0800090618B600B604FF08040016956
:100A400021F00101016130BD0000002000000240E2
:100A500018040240FEE70907090E002804DB00F134
:100A6000E02080F80014704700F00F0000F1E02053
:100A700080F8141D704702E008C8121F08C1002A40
:100A8000FAD170477047002001E001C1121F002A0F
:100A9000FBD1704708B5FFF767FCFFF770FFA04870
:100AA000016841F001010160016801F0010100915C
:100AB0009B49103109689A4A41F0010110321160D6
:100AC0004FF080419F228A6244F62062CA620A681F
:100AD00042F001020A60CA6842F00102CA604FF0A7
:100AE000E021D1F8002142F08052C1F800210268D3
:100AF00042F0020202608B4A12688A4B42F01102F5
:100B00001A6000221B1D1A601A1D12681B1D42F07C
:100B100011021A60026842F001020260824D2A68E6
:100B200042F480422A6000226A60AA6842F480424D
:100B3000AA607B4A14321268794B42F48042143323
:100B40001A60026842F008020260784A1268774B25
:100B500022F440021A60754A0C321268734B42F458
:100B600080020C331A601A1F136843F48003136069
:100B70006F4A136843F4405313606E4A136843F49A
:100B8000006313606B4B0C331C6844F400641C60FE
:100B90001C1F266826F400662660D1F8046146F41E
:100BA0008076C1F804615E4E143636685C4F46F4B8
:100BB000804614373E60066846F0040606605E4EC6
:100BC000376827F4405737605B4F0C37D7F800C0C1
:100BD0004CF4805CC7F800C0A7F10409D9F800C044
:100BE0004CF48058C9F80080DFF844A1AAF1040A47
:100BF000DAF800C04CF40078CAF80080D2F800C0DF
:100C00004CF0400CC2F800C0D3F800C04CF0400CCF
:100C1000C3F800C0D4F800C02CF0400CC4F800C0E9
:100C2000D1F800C14CF4000CC1F800C1DFF8F0C0ED
:100C30000CF1140CDCF800C0DFF8E4804CF4804CBC
:100C400008F11408C8F800C0D0F800C04CF0040C3B
:100C5000C0F800C0D6F800C02CF4404CC6F800C064
:100C60003E6846F480463E60D9F8006046F480470E
:100C7000C9F80070DAF8006046F40057CAF800704E
:100C8000166846F0800616601E6846F080061E60F4
:100C9000266826F080062660D1F8006146F400063A
:100CA000C1F8006146463668474646F480463E60D5
:100CB000066846F0100606602048066826F0405692
:100CC0000660C66846F08056C660866846F0805664
:100CD00086601748001D066846F480660660106846
:100CE00040F480401060186840F48040186020682C
:100CF00020F480402060D1F8040140F48070C1F8F5
:100D0000040108481830016841F0010101600168E0
:100D100041F004010160A86940F08000A861FEE78D
:100D2000303802400004024000000240000C024043
:100D300010380140003C0140000802400010024011
:100D4000000000000000000001020304060708097B
:100D5000700D0008000000201C000000760A00084A
:100D60008C0D00081C00002004040000860A000806
:100D70000000000000000000000000000100000072
:0C0D800010000000000000000024F4003F
:040000050800018569
:00000001FF
